:100000000C94E3000C940B010C940B010C940B0169
:100010000C940B010C940B010C940B010C940B0130
:100020000C940B010C94AE090C940B010C940B0175
:100030000C940B010C940B010C940B010C940B0110
:100040000C94D8090C940B010C94E0040C942E052C
:100050000C940B010C940B010C940B010C940B01F0
:100060000C940B010C940B010000000024002700ED
:100070002A0000000000250028002B0000000000DE
:1000800023002600290004040404040404040202DA
:100090000202020203030303030301020408102007
:1000A0004080010204081020010204081020000012
:1000B0000007000201000003040600000000000029
:1000C0000000005EBCE2613FDD83C29C7E20A3FD98
:1000D0001F419DC3217FFCA2401E5F01E3BD3E6026
:1000E00082DC237D9FC1421CFEA0E1BF5D0380DE58
:1000F0003C62BEE0025CDF81633D7C22C09E1D430A
:10010000A1FF4618FAA427799BC584DA3866E5BBB7
:100110005907DB856739BAE406581947A5FB7826E5
:10012000C49A653BD987045AB8E6A7F91B45C69817
:100130007A24F8A6441A99C7257B3A6486D85B05C9
:10014000E7B98CD2306EEDB3510F4E10F2AC2F7177
:1001500093CD114FADF3702ECC92D38D6F31B2ECA5
:100160000E50AFF1134DCE90722C6D33D18F0C52D7
:10017000B0EE326C8ED0530DEFB1F0AE4C1291CF89
:100180002D73CA947628ABF517490856B4EA693737
:10019000D58B5709EBB536688AD495CB2977F4AA65
:1001A0004816E9B7550B88D6346A2B7597C94A1497
:1001B000F6A8742AC896154BA9F7B6E80A54D78949
:1001C0006B3567019A0611241FBECFEFD8E0DEBF62
:1001D000CDBF11E0A0E0B1E0E8EEF9E102C005908A
:1001E0000D92AA32B107D9F712E0AAE2B1E001C03C
:1001F0001D92A430B107E1F711E0C6ECD1E004C0D4
:100200002297FE010E94EE0CC23CD107C9F70E9462
:10021000D0040C94F20C0C9400008CEC91E00E9441
:10022000F005181619063CF58CEC91E00E942106A9
:100230008437910589F48CEC91E060E071E00E94D4
:10024000C3030E945C01AB01BC018CEC91E022E095
:1002500030E00E94AA0408958235910529F48DE0CA
:1002600060E00E94560208958237910521F48DE0E6
:1002700061E00E94560208950E940D0108950F93B7
:100280001F930CEC11E0C80140E855E260E070E01B
:100290000E9469058DE061E00E9417028DE061E037
:1002A0000E9456020E948101C80166E071E00E942E
:1002B000BD041F910F91089520914001309141019B
:1002C0004091420150914301B901CA0108958AE267
:1002D00091E068E00E94D50808950F931F930AE209
:1002E00011E0C8010E94F407C80168E371E00E94B0
:1002F000D307C80164E441E00E9493071F910F9166
:1003000008958AE291E00E94F0068AE291E068E3B3
:1003100071E00E943F088823C9F088E391E067E01C
:100320000E94FD0690913F01891781F48091380168
:10033000883261F40E946D016EEE72E080E090E020
:1003400042E152E00E940B090E9459090895EF9280
:10035000FF920F931F93DF93CF93CDB7DEB72C9708
:100360000FB6F894DEBF0FBECDBF8AE291E00E94C7
:10037000F4078AE291E068E371E00E94D3078AE221
:1003800091E06EEB40E00E9493078E010F5F1F4FDC
:100390002AE0E22EF12CEC0EFD1E8AE291E00E9492
:1003A0004207F80181938F01EE15FF05B1F79A819D
:1003B00080E02981FC01E20FF11DF7FF03C0F095F9
:1003C000E195FF4FCF0164E070E00E94A30C9B0118
:1003D000BF01660F771F6E0F7F1F660F771F620FBB
:1003E000731F882777FD8095982F0E94690B20E066
:1003F00030E048EC52E40E94CE0A609340017093D2
:10040000410180934201909343012C960FB6F894DA
:10041000DEBF0FBECDBFCF91DF911F910F91FF9037
:10042000EF9008950E94A7010E946D010895CF9357
:10043000DF93482F50E0CA0186569F4FFC0134914C
:100440004A575F4FFA018491882369F190E0880F41
:10045000991FFC01E859FF4FA591B491FC01EE589A
:10046000FF4FC591D491662351F42FB7F8948C9126
:10047000932F909589238C93888189230BC06230B8
:1004800061F42FB7F8948C91932F909589238C93D6
:100490008881832B88832FBF06C09FB7F8948C91E7
:1004A000832B8C939FBFDF91CF910895482F50E00D
:1004B000CA0182559F4FFC012491CA0186569F4F65
:1004C000FC0194914A575F4FFA013491332309F4A8
:1004D00040C0222351F1233071F0243028F4213020
:1004E000A1F0223011F514C02630B1F02730C1F050
:1004F0002430D9F404C0809180008F7703C08091AC
:1005000080008F7D8093800010C084B58F7702C0FB
:1005100084B58F7D84BD09C08091B0008F7703C002
:100520008091B0008F7D8093B000E32FF0E0EE0F5C
:10053000FF1FEE58FF4FA591B4912FB7F894662393
:1005400021F48C919095892302C08C91892B8C93F6
:100550002FBF0895CF92DF92EF92FF920F931F93D8
:10056000CF93DF937C016B018A01C0E0D0E00FC024
:10057000D6016D916D01D701ED91FC910190F08153
:10058000E02DC7010995C80FD91F01501040011572
:10059000110571F7CE01DF91CF911F910F91FF905F
:1005A000EF90DF90CF900895EF92FF920F931F93FB
:1005B0008C01DC01ED91FC910190F081E02D6DE06A
:1005C00009957C01D801ED91FC910190F081E02D1D
:1005D000C8016AE009959C012E0D3F1DC9011F91BC
:1005E0000F91FF90EF900895CF93DF93EC01611589
:1005F000710519F420E030E00FC0DB010D90002000
:10060000E9F71197A61BB70BE881F9810280F38106
:10061000E02DAD0109959C01C901DF91CF910895AD
:100620004F925F927F928F929F92AF92BF92CF92A2
:10063000DF92EF92FF920F931F93DF93CF93CDB78B
:10064000DEB7A1970FB6F894DEBF0FBECDBF2C0169
:10065000742ECB01223008F42AE019A231E2C32E15
:10066000D12CCC0EDD1E822E9924AA24BB24672D0A
:10067000752FA50194010E94B60C79018A01C80169
:10068000B701A50194010E94840C472D461B0894D4
:10069000C108D1084A3010F4405D01C0495CF60140
:1006A0004083E114F1040105110521F07E2C5F2D3A
:1006B000C801DDCFC201B6010E94F402A1960FB6B7
:1006C000F894DEBF0FBECDBFCF91DF911F910F9188
:1006D000FF90EF90DF90CF90BF90AF909F908F9062
:1006E0007F905F904F900895DC012115310541F412
:1006F000ED91FC910190F081E02D642F0995089512
:100700000E9410030895CF92DF92EF92FF920F9311
:100710001F93CF93DF93EC016A017B012115310513
:1007200041F4E881F9810190F081E02D642F099571
:100730001FC02A303105D1F477FF17C0E881F98155
:100740000190F081E02D6DE209958C014427552739
:10075000BA014C195D096E097F09CE012AE00E9499
:1007600010039801280F391F04C02AE00E941003CB
:100770009C01C901DF91CF911F910F91FF90EF90E4
:10078000DF90CF9008950E94F40208957F928F9297
:100790009F92AF92BF92CF92DF92EF92FF920F9310
:1007A0001F93CF93DF934C017A018B01722ECB0103
:1007B000BA01A80197010E94800C882321F0C4018E
:1007C0006CE071E021C0C0E0D0E057016801E8941E
:1007D000D7F8C601B5012FEF3FEF4FE75FE70E9463
:1007E000800C882351F4C601B5012FEF3FEF4FE78E
:1007F0005FE70E94CA0A181614F0C1E0D0E0219702
:1008000039F0C40160E171E00E94F402EC0193C090
:10081000C801B7012FEF3FEF4FE75FE40E94190CCB
:10082000181654F0C801B7012FEF3FEF4FE75FEC08
:100830000E94CA0A882324F4C40164E171E0E4CF71
:10084000C801B70120E030E040E050E00E94CA0A51
:1008500087FD03C0C0E0D0E00EC0D401ED91FC9153
:100860000190F081E02DC4016DE20995EC0117FBC8
:10087000109517F9109520E030E040E05FE3DD24AB
:100880000BC0CA01B90120E030E040E251E40E940F
:10089000CE0A9B01AC01D394D71498F3C801B701D9
:1008A0000E94660A5B016C010E943B0B7B018C017C
:1008B000C401B801A7012AE030E00E947403C80F08
:1008C000D91F772039F0C40168E171E00E94F40279
:1008D000C80FD91FC801B7010E94670B9B01AC016B
:1008E000C601B5010E94650A24C020E030E040E264
:1008F00051E40E941D0C7B018C010E94360B5B01B0
:100900006C01CC24B7FCC094DC2CC401B601A50159
:100910002AE030E00E948303C80FD91FC601B50149
:100920000E94690B9B01AC01C801B7010E94650AD6
:100930007A947720D1F6CE01DF91CF911F910F915C
:10094000FF90EF90DF90CF90BF90AF909F908F90EF
:100950007F900895EF92FF920F931F937C010E9466
:10096000C6038C01C7010E94D402080F191FC801D9
:100970001F910F91FF90EF900895EF92FF920F93C8
:100980001F937C010E94F4028C01C7010E94D402D3
:10099000080F191FC8011F910F91FF90EF90089544
:1009A000CF93DF930E942A0A0E943F01CBE1D5E05A
:1009B0000E943C012097E1F30E941B05F9CF0895A6
:1009C0001F920F920FB60F9211242F933F934F93C4
:1009D0008F939F93EF93FF938091C00082FD1DC082
:1009E0004091C60020918401309185012F5F3F4FD7
:1009F0002F733070809186019091870128173907F5
:100A000071F0E0918401F0918501EC5BFE4F408331
:100A1000309385012093840102C08091C600FF912C
:100A2000EF919F918F914F913F912F910F900FBE1A
:100A30000F901F901895E091D801F091D901E05CDA
:100A4000FF4F8191919120813181821B930B8F7394
:100A50009070892B11F00E94DF0408951F920F926D
:100A60000FB60F9211242F933F938F939F93EF9381
:100A7000FF932091C8013091C9018091CA019091E2
:100A8000CB012817390731F48091C1008F7D809305
:100A9000C10014C0E091CA01F091CB01E857FE4FAC
:100AA00020818091CA019091CB0101968F73907043
:100AB0009093CB018093CA012093C600FF91EF91E0
:100AC0009F918F913F912F910F900FBE0F901F908C
:100AD0001895AF92BF92DF92EF92FF920F931F9300
:100AE000CF93DF93EC017A018B01DD24403081EE5E
:100AF000580780E0680780E0780711F0DD24D39480
:100B000091E0A92EB12CEC89FD89DD2069F0C501A9
:100B100008A002C0880F991F0A94E2F7808360E062
:100B200079E08DE390E005C0108260E874E88EE122
:100B300090E0A80197010E94B60C2150304040403F
:100B40005040569547953795279580E120303807D6
:100B500020F0DD2011F0DD24D6CFE889F98930833B
:100B6000EA89FB89208319A2EE89FF89408121E06F
:100B700030E0C9010C8C02C0880F991F0A94E2F77B
:100B8000482B4083EE89FF894081C9010D8C02C04A
:100B9000880F991F0A94E2F7482B4083EE89FF895A
:100BA0004081C9010E8C02C0880F991F0A94E2F798
:100BB000482B4083EE89FF8980810F8C02C0220F71
:100BC000331F0A94E2F7209528232083DF91CF91E9
:100BD0001F910F91FF90EF90DF90BF90AF9008951D
:100BE000DC011C96ED91FC911D97E05CFF4F21917B
:100BF000319180819181281B390B2F733070C9018D
:100C00000895DC011C96ED91FC911D97E05CFF4F6F
:100C100020813181E054F040DF01AE5BBF4F8D9108
:100C20009C9111972817390719F42FEF3FEF07C050
:100C30008D919C91E80FF91F8081282F30E0C90128
:100C40000895DC011C96ED91FC911D97E05CFF4F2F
:100C500020813181E054F040DF01AE5BBF4F8D91C8
:100C60009C9111972817390719F42FEF3FEF10C007
:100C70008D919C911197E80FF91F20818D919C9186
:100C8000119701968F73907011969C938E9330E01C
:100C9000C9010895DC0191968C919197882339F0D0
:100CA0005496ED91FC915597808186FFF9CF9196EE
:100CB0001C920895CF93DF93EC01EE85FF85E05CF5
:100CC000FF4F20813181E054F0402F5F3F4F2F7361
:100CD0003070DF01AE5BBF4F8D919C91119728174B
:100CE0003907D1F3E05CFF4F80819181E054F040FF
:100CF000E80FF91F6083EE85FF85E05CFF4F3183CD
:100D00002083EE89FF89208181E090E00F8C02C072
:100D1000880F991F0A94E2F7282B208381E089A38A
:100D2000EC89FD8980818064808381E090E0DF919F
:100D3000CF9108951092CF011092CE0188EE93E0EA
:100D4000A0E0B0E08093D0019093D101A093D201B4
:100D5000B093D3018EE191E09093CD018093CC01CB
:100D600084E491E09093D9018093D80188E891E0E0
:100D70009093DB018093DA0185EC90E09093DD01A4
:100D80008093DC0184EC90E09093DF018093DE019E
:100D900080EC90E09093E1018093E00181EC90E0A1
:100DA0009093E3018093E20182EC90E09093E5015F
:100DB0008093E40186EC90E09093E7018093E60154
:100DC00084E08093E80183E08093E90187E08093E9
:100DD000EA0185E08093EB0181E08093EC010895C6
:100DE000FC0113861586148687E090E01286319701
:100DF000009711F00197FACF0895DC0180E00BC055
:100E0000E82FF0E08D9190E0E827F927EE53FF4FAF
:100E1000E49161508E2F662399F70895DF92EF9247
:100E2000FF920F931F93FC01E08001811281F894DF
:100E3000F80181818E2981838281DE2CD0948D21DD
:100E4000828383E090E00E94200AF80181818D2155
:100E500081838AE090E00E94200AF8010081789462
:100E600085E390E00E94200A80E010E0FF240E213C
:100E70001F21012B09F081E01F910F91FF90EF904E
:100E8000DF900895EF92FF920F931F93CF93DF931C
:100E90007C0101E010E0C0E0D0E0C7010E940E0735
:100EA0008111102B000F2196C830D105B1F7812F89
:100EB000DF91CF911F910F91FF90EF9008951F93B5
:100EC000CF93DF93FC011081C181D281912F909546
:100ED00060FF12C0F8948A8189238A838981812BDB
:100EE00089838AE090E00E94200A8A81812B8A838C
:100EF000789487E390E011C0F8948A8189238A83EB
:100F00008981812B898381E490E00E94200A8A8173
:100F1000812B8A83789485E090E00E94200ADF91FB
:100F2000CF911F910895CF92DF92EF92FF920F938E
:100F30001F93CF93DF938C01E42EFF24F394C0E042
:100F4000D0E0C62EDD2460E08F2D90E08C219D2125
:100F5000892B09F061E0C8010E945F07FF0C219610
:100F6000C830D10581F7EE20A9F4F894D801119684
:100F7000ED91FC91129791818C91809598239183AA
:100F80001196ED91FC91129792818C918095982306
:100F900092837894DF91CF911F910F91FF90EF9002
:100FA000DF90CF900895EF92FF920F931F93CF930E
:100FB000DF938C017B0165E540E00E949307C0E070
:100FC000D0E0F701EC0FFD1FC801608140E00E94F6
:100FD00093072196C830D105A1F7DF91CF911F91DA
:100FE0000F91FF90EF900895DF92EF92FF920F9391
:100FF0001F93CF93DF93FC010081C181D281F894CC
:101000008981D02ED0948D21898378941DE7E02E9C
:10101000FF24115059F182E090E00E94200A88815B
:1010200090E08E219F21892BA1F3F8948A818D2154
:101030008A838981802B8983789480EE91E00E9455
:10104000200AF89489818D21898386E490E00E94AA
:10105000200A888110E090E0E822F922EF2809F4C4
:1010600011E078948AE991E00E94200A812FDF91B3
:10107000CF911F910F91FF90EF90DF900895AF9265
:10108000BF92DF92EF92FF920F931F93CF93DF9364
:10109000EC015B018D85882309F061C0CE010E94BF
:1010A000F407882329F41B861D861C8690E06BC0FC
:1010B000CE0160EF40E00E94930701E0DD24EE24C2
:1010C000FF24F394CE010E940E07182FCE010E9438
:1010D0000E07113019F48130E1F439C0181709F501
:1010E0008B85081770F460E0FE01EE0DF11D838121
:1010F00090E02F2D30E082239323181619064CF030
:1011000003C060E0081729F0093008F04CC00C87D4
:101110004AC0FE01EE0DF11D83818F29838361E0BA
:1011200009C0612FFE01EE0DF11D9F2D9095838169
:1011300089238383CE010E945F070F5FFF0C19F4A0
:10114000E394FF24F39487E08E1508F0BBCF0134BD
:1011500030F0DB86DD2011F581E08D871FC01B8616
:101160001D861C8690E0DE0120E030E0F501E20FF4
:10117000F31F13968C91139780832F5F3F4F119627
:101180002830310599F7892FDF91CF911F910F9169
:10119000FF90EF90DF90BF90AF9008958B818823F0
:1011A000F1F291E0E0CFD02EBDCFFF920F931F93CD
:1011B0008C01F62E862F60E00E9417028F2D90E0A2
:1011C000FC01E656FF4FE491D801EC938A579F4FFC
:1011D000FC016491E62FF0E0EE0FFF1FE458FF4F93
:1011E0008591949112969C938E9311971B961C92C5
:1011F0001B971D961C921D971C961C92F80187E068
:1012000090E012863197009711F00197FACF1F9165
:101210000F91FF9008950F931F938B019C01809174
:1012200070008E7F809370008091B0008C7F8093DF
:10123000B0008091B100877F8093B1008091B600AB
:101240008F7D8093B600809170008D7F80937000B9
:101250008091B10084608093B1008091B1008C7F57
:101260008093B10086E090E09093FA018093F901B9
:10127000011511052105310569F481E090E0A0E038
:10128000B0E08093EE019093EF01A093F001B09352
:10129000F10108C00093EE011093EF012093F001DB
:1012A0003093F1015093F3014093F2011F910F919C
:1012B00008951092F4011092F5011092F601109227
:1012C000F7011092F8018091F9019091FA01809351
:1012D000B200E0E7F0E08081816080830895809132
:1012E000F4019091F501A091F601B091F7010196FA
:1012F000A11DB11D8093F4019093F501A093F60117
:10130000B093F7012091F4013091F5014091F6017D
:101310005091F7018091EE019091EF01A091F001C1
:10132000B091F101281739074A075B07B0F08091A7
:10133000F801882391F481E08093F8011092F40180
:101340001092F5011092F6011092F701E091F2016E
:10135000F091F30109951092F80108951F920F92F0
:101360000FB60F9211242F933F934F935F936F9378
:101370007F938F939F93AF93BF93EF93FF9380914E
:10138000F9019091FA018093B2000E946F09FF91D8
:10139000EF91BF91AF919F918F917F916F915F91ED
:1013A0004F913F912F910F900FBE0F901F90189566
:1013B0001F920F920FB60F9211242F933F938F938A
:1013C0009F93AF93BF938091FF0190910002A091F2
:1013D0000102B0910202309103020196A11DB11DDC
:1013E000232F2D5F2D3720F02D570196A11DB11D04
:1013F000209303028093FF0190930002A0930102C7
:10140000B09302028091FB019091FC01A091FD013B
:10141000B091FE010196A11DB11D8093FB01909337
:10142000FC01A093FD01B093FE01BF91AF919F918C
:101430008F913F912F910F900FBE0F901F90189595
:10144000019739F0880F991F880F991F029701970C
:10145000F1F70895789484B5826084BD84B5816085
:1014600084BD85B5826085BD85B5816085BDEEE6AC
:10147000F0E0808181608083E1E8F0E0108280818B
:1014800082608083808181608083E0E8F0E08081F9
:1014900081608083E1EBF0E0808184608083E0EB19
:1014A000F0E0808181608083EAE7F0E08081846001
:1014B000808380818260808380818160808380815D
:1014C000806880831092C10008955058BB27AA27D6
:1014D0000ED075C166D130F06BD120F031F49F3F52
:1014E00011F41EF45BC10EF4E095E7FB51C1E92F46
:1014F00077D180F3BA17620773078407950718F04E
:1015000071F49EF58FC10EF4E0950B2EBA2FA02D2D
:101510000B01B90190010C01CA01A0011124FF27A0
:10152000591B99F0593F50F4503E68F11A16F0409B
:10153000A22F232F342F4427585FF3CF469537959A
:101540002795A795F0405395C9F77EF41F16BA0B5F
:10155000620B730B840BBAF09150A1F0FF0FBB1F0D
:10156000661F771F881FC2F70EC0BA0F621F731F56
:10157000841F48F4879577956795B795F7959E3FB3
:1015800008F0B3CF9395880F08F09927EE0F979541
:1015900087950895D9D008F481E008950CD00FC143
:1015A00007D140F0FED030F021F45F3F19F0F0C0D9
:1015B000511139C1F3C014D198F39923C9F35523BC
:1015C000B1F3951B550BBB27AA2762177307840736
:1015D00038F09F5F5F4F220F331F441FAA1FA9F3EC
:1015E00033D00E2E3AF0E0E830D091505040E695DE
:1015F000001CCAF729D0FE2F27D0660F771F881F3F
:10160000BB1F261737074807AB07B0E809F0BB0B2D
:10161000802DBF01FF2793585F4F2AF09E3F510551
:1016200068F0B6C000C15F3FECF3983EDCF38695EE
:1016300077956795B795F7959F5FC9F7880F911DC7
:101640009695879597F90895E1E0660F771F881FB3
:10165000BB1F621773078407BA0720F0621B730B66
:10166000840BBA0BEE1F88F7E095089504D06894B8
:10167000B111D9C00895BCD088F09F5790F0B92F10
:101680009927B751A0F0D1F0660F771F881F991FD7
:101690001AF0BA95C9F712C0B13081F0C3D0B1E0E9
:1016A0000895C0C0672F782F8827B85F39F0B93FF9
:1016B000CCF3869577956795B395D9F73EF49095D9
:1016C0008095709561957F4F8F4F9F4F0895E89457
:1016D00009C097FB3EF490958095709561957F4F7A
:1016E0008F4F9F4F9923A9F0F92F96E9BB27939528
:1016F000F695879577956795B795F111F8CFFAF438
:10170000BB0F11F460FF1BC06F5F7F4F8F4F9F4F68
:1017100016C0882311F096E911C0772321F09EE8C6
:10172000872F762F05C0662371F096E8862F70E02C
:1017300060E02AF09A95660F771F881FDAF7880F06
:101740009695879597F90895990F0008550FAA0B5C
:10175000E0E8FEEF16161706E807F907C0F01216C4
:101760001306E407F50798F0621B730B840B950BC7
:1017700039F40A2661F0232B242B252B21F408951C
:101780000A2609F4A140A6958FEF811D811D0895B9
:1017900097F99F6780E870E060E008959FEF80EC24
:1017A000089500240A9416161706180609060895C7
:1017B00000240A9412161306140605060895092E2D
:1017C0000394000C11F4882352F0BB0F40F4BF2B9C
:1017D00011F460FF04C06F5F7F4F8F4F9F4F0895DC
:1017E00057FD9058440F551F59F05F3F71F04795D2
:1017F000880F97FB991F61F09F3F79F087950895B7
:10180000121613061406551FF2CF4695F1DF08C0D5
:10181000161617061806991FF1CF869571056105F2
:1018200008940895E894BB2766277727CB0197F99A
:1018300008958ADF08F48FEF08950BD0C0CFB1DF91
:1018400028F0B6DF18F0952309F0A2CFA7CF112416
:10185000EACFC6DFA0F3959FD1F3950F50E0551F57
:10186000629FF001729FBB27F00DB11D639FAA27F5
:10187000F00DB11DAA1F649F6627B00DA11D661F44
:10188000829F2227B00DA11D621F739FB00DA11D65
:10189000621F839FA00D611D221F749F3327A00D1F
:1018A000611D231F849F600D211D822F762F6A2FBB
:1018B00011249F5750408AF0E1F088234AF0EE0F40
:1018C000FF1FBB1F661F771F881F91505040A9F74D
:1018D0009E3F510570F05CCFA6CF5F3FECF3983E82
:1018E000DCF3869577956795B795F795E7959F5FB4
:1018F000C1F7FE2B880F911D9695879597F908954E
:1019000023DF880B990B0895629FD001739FF0012C
:10191000829FE00DF11D649FE00DF11D929FF00D7F
:10192000839FF00D749FF00D659FF00D9927729FB6
:10193000B00DE11DF91F639FB00DE11DF91FBD0141
:10194000CF011124089597FB092E07260AD077FDB1
:1019500004D02ED006D000201AF4709561957F4FE8
:101960000895F6F7909581959F4F0895A1E21A2E5C
:10197000AA1BBB1BFD010DC0AA1FBB1FEE1FFF1F33
:10198000A217B307E407F50720F0A21BB30BE40B83
:10199000F50B661F771F881F991F1A9469F76095CA
:1019A0007095809590959B01AC01BD01CF01089584
:1019B000AA1BBB1B51E107C0AA1FBB1FA617B70775
:1019C00010F0A61BB70B881F991F5A95A9F7809591
:1019D0009095BC01CD010895EE0FFF1F0590F49185
:0819E000E02D0994F894FFCFFB
:1019E80074656D703A007374617274006E616E0094
:1019F800696E66006F7666002E00000000005A06C9
:0A1A0800AA02F005210601064A06B5
:00000001FF
