:100000000C9435000C945D000C945D000C945D0024
:100010000C945D000C945D000C945D000C945D00EC
:100020000C945D000C945D000C945D000C945D00DC
:100030000C945D000C945D000C945D000C945D00CC
:100040000C9408030C945D000C94F8000C94460189
:100050000C945D000C945D000C945D000C945D00AC
:100060000C945D000C945D00B20211241FBECFEF12
:10007000D8E0DEBFCDBF11E0A0E0B1E0EAE6F7E0F6
:1000800002C005900D92A631B107D9F711E0A6E1A3
:10009000B1E001C01D92A93CB107E1F710E0CAE64A
:1000A000D0E004C02297FE010E94AF03C836D107FA
:1000B000C9F70E94E8000C94B3030C9400008EE989
:1000C00091E060E071E00E94D50008958EE991E032
:1000D00040E855E260E070E00E9481010895CF920F
:1000E000DF92EF92FF920F931F93CF93DF937C01E8
:1000F0006B018A01C0E0D0E00FC0D6016D916D01A7
:10010000D701ED91FC910190F081E02DC701099597
:10011000C80FD91F015010400115110571F7CE010C
:10012000DF91CF911F910F91FF90EF90DF90CF90D3
:100130000895EF92FF920F931F938C01DC01ED91D4
:10014000FC910190F081E02D6DE009957C01D801D2
:10015000ED91FC910190F081E02DC8016AE00995D4
:100160009C012E0D3F1DC9011F910F91FF90EF9033
:100170000895CF93DF93EC016115710519F420E028
:1001800030E00FC0DB010D900020E9F71197A61BAE
:10019000B70BE881F9810280F381E02DAD0109956B
:1001A0009C01C901DF91CF910895EF92FF920F93C7
:1001B0001F937C010E94B9008C01C7010E94990025
:1001C000080F191FC8011F910F91FF90EF9008951C
:1001D000CF93DF930E9450030E946600C3E3D1E0F7
:1001E0000E945F002097E1F30E943301F9CF089548
:1001F0001F920F920FB60F9211242F933F934F939C
:100200008F939F93EF93FF938091C00082FD1DC059
:100210004091C60020915601309157012F5F3F4F0A
:100220002F73307080915801909159012817390728
:1002300071F0E0915601F0915701EA5EFE4F408364
:10024000309357012093560102C08091C600FF9160
:10025000EF919F918F914F913F912F910F900FBEF2
:100260000F901F901895E091AA01F091AB01E05C0E
:10027000FF4F8191919120813181821B930B8F736C
:100280009070892B11F00E94F70008951F920F9231
:100290000FB60F9211242F933F938F939F93EF9359
:1002A000FF9320919A0130919B0180919C01909144
:1002B0009D012817390731F48091C1008F7D80930B
:1002C000C10014C0E0919C01F0919D01E65AFE4FDF
:1002D000208180919C0190919D0101968F73907077
:1002E00090939D0180939C012093C600FF91EF9114
:1002F0009F918F913F912F910F900FBE0F901F9064
:100300001895AF92BF92DF92EF92FF920F931F93D7
:10031000CF93DF93EC017A018B01DD24403081EE35
:10032000580780E0680780E0780711F0DD24D39457
:1003300091E0A92EB12CEC89FD89DD2069F0C50181
:1003400008A002C0880F991F0A94E2F7808360E03A
:1003500079E08DE390E005C0108260E874E88EE1FA
:1003600090E0A80197010E948B032150304040404B
:100370005040569547953795279580E120303807AE
:1003800020F0DD2011F0DD24D6CFE889F989308313
:10039000EA89FB89208319A2EE89FF89408121E047
:1003A00030E0C9010C8C02C0880F991F0A94E2F753
:1003B000482B4083EE89FF894081C9010D8C02C022
:1003C000880F991F0A94E2F7482B4083EE89FF8932
:1003D0004081C9010E8C02C0880F991F0A94E2F770
:1003E000482B4083EE89FF8980810F8C02C0220F49
:1003F000331F0A94E2F7209528232083DF91CF91C1
:100400001F910F91FF90EF90DF90BF90AF900895F4
:10041000DC011C96ED91FC911D97E05CFF4F219152
:10042000319180819181281B390B2F733070C90164
:100430000895DC011C96ED91FC911D97E05CFF4F47
:1004400020813181E054F040DF01AE5BBF4F8D91E0
:100450009C9111972817390719F42FEF3FEF07C028
:100460008D919C91E80FF91F8081282F30E0C90100
:100470000895DC011C96ED91FC911D97E05CFF4F07
:1004800020813181E054F040DF01AE5BBF4F8D91A0
:100490009C9111972817390719F42FEF3FEF10C0DF
:1004A0008D919C911197E80FF91F20818D919C915E
:1004B000119701968F73907011969C938E9330E0F4
:1004C000C9010895DC0191968C919197882339F0A8
:1004D0005496ED91FC915597808186FFF9CF9196C6
:1004E0001C920895CF93DF93EC01EE85FF85E05CCD
:1004F000FF4F20813181E054F0402F5F3F4F2F7339
:100500003070DF01AE5BBF4F8D919C911197281722
:100510003907D1F3E05CFF4F80819181E054F040D6
:10052000E80FF91F6083EE85FF85E05CFF4F3183A4
:100530002083EE89FF89208181E090E00F8C02C04A
:10054000880F991F0A94E2F7282B208381E089A362
:10055000EC89FD8980818064808381E090E0DF9177
:10056000CF9108951092A1011092A00188EE93E01E
:10057000A0E0B0E08093A2019093A301A093A40116
:10058000B093A50189E091E090939F0180939E0133
:1005900086E191E09093AB018093AA018AE591E016
:1005A0009093AD018093AC0185EC90E09093AF0106
:1005B0008093AE0184EC90E09093B1018093B00100
:1005C00080EC90E09093B3018093B20181EC90E0D5
:1005D0009093B5018093B40182EC90E09093B701C1
:1005E0008093B60186EC90E09093B9018093B801B6
:1005F00084E08093BA0183E08093BB0187E080931D
:10060000BC0185E08093BD0181E08093BE01089527
:100610001F920F920FB60F9211242F933F938F9337
:100620009F93AF93BF938091C4019091C501A09116
:10063000C601B091C7013091C8010196A11DB11D3D
:10064000232F2D5F2D3720F02D570196A11DB11DB1
:100650002093C8018093C4019093C501A093C60163
:10066000B093C7018091C0019091C101A091C201D6
:10067000B091C3010196A11DB11D8093C00190935B
:10068000C101A093C201B093C301BF91AF919F91EB
:100690008F913F912F910F900FBE0F901F90189543
:1006A000789484B5826084BD84B5816084BD85B54D
:1006B000826085BD85B5816085BDEEE6F0E0808114
:1006C00081608083E1E8F0E0108280818260808335
:1006D000808181608083E0E8F0E0808181608083B8
:1006E000E1EBF0E0808184608083E0EBF0E08081EA
:1006F00081608083EAE7F0E080818460808380818C
:100700008260808380818160808380818068808333
:100710001092C1000895A1E21A2EAA1BBB1BFD0175
:100720000DC0AA1FBB1FEE1FFF1FA217B307E407D0
:10073000F50720F0A21BB30BE40BF50B661F771F28
:10074000881F991F1A9469F7609570958095909508
:100750009B01AC01BD01CF010895EE0FFF1F059075
:0A076000F491E02D0994F894FFCF06
:10076A006C6F6F70000000000072026F000802399F
:06077A00021902620200F8
:00000001FF
